:020000040800F2
:10000000E00B002051220008FD030008FF03000858
:1000100003040008070400080B04000800000000A7
:100020000000000000000000000000000F040008B5
:100030001104000800000000130400081504000863
:100040006B2200086B2200086B2200086B2200085C
:100050006B2200086B2200086B2200086B2200084C
:100060006B2200086B2200086B2200086B2200083C
:100070006B2200086B2200086B2200086B2200082C
:100080006B2200086B2200086B2200086B2200081C
:100090006B2200086B2200086B2200083B1B000843
:1000A0006B2200086B2200086B2200086B220008FC
:1000B0006B2200086B2200086B2200086B220008EC
:1000C0006B2200086B2200086B2200086B220008DC
:1000D0006B220008A7210008551F0008892000088E
:1000E0006B2200086B2200086B22000800F002F867
:1000F00000F03FF80AA090E8000C82448344AAF183
:100100000107DA4501D100F034F8AFF2090EBAE880
:100110000F0013F0010F18BFFB1A43F0010318473B
:100120006844000088440000103A24BF78C878C1B1
:10013000FAD8520724BF30C830C144BF04680C60ED
:10014000704700000023002400250026103A28BF35
:1001500078C1FBD8520728BF30C148BF0B60704739
:10016000782903F00383002070471FB51FBD10B529
:1001700010BD03F0C5FB1146FFF7F7FF00F07BF859
:1001800003F0E3FB03B4FFF7F2FF03BC01F07CFED6
:100190002DE9FC5F81460C461646484604F01CF8E3
:1001A00085B2284604F050F88346494604F010F919
:1001B000824603F0B5FE0022854BCDE9000103F035
:1001C000B1FD074603F0CCFB81464FF47A7095FBF6
:1001D000F0F00A2190FBF1F201FB12007D49087258
:1001E000642095FBF0F00A2190FBF1F201FB120074
:1001F000784948720A2095FBF0F00A2190FBF1F251
:1002000001FB1200734988720A2095FBF0F100FB94
:1002100011507049C872484603F0DEFF85B20A20CB
:1002200095FBF0F00A2190FBF1F201FB1200694905
:1002300008730A2095FBF0F100FB115065494873E3
:100240002068000E08702068000C48702088000AA2
:1002500088702078C8706068000E08716068000CB3
:100260004871A088000A88712079C871300A8873A3
:10027000CE73BDE8FC9F01F09DFD4FF4A06002F03D
:1002800007F85548006855490860702008719020AB
:100290004871042088710F20C871012008724872CB
:1002A00088726420C87201F004F908B100BFFEE74B
:1002B0004A48407990281AD006DC60280BD0702874
:1002C0000DD0802823D10EE0A02814D0B02816D05D
:1002D000C0281CD117E006204149087017E007200C
:1002E0003F49087013E008203D4908700FE00920DD
:1002F0003B4908700BE00A203949087007E00B20E1
:100300003749087003E00C203549087000BF00BF72
:1003100000F048FD00F0AAFC00F06EF900F05AFB76
:1003200000F01800182804D000F030FD0A2000F07A
:100330000BFA01202B49087001F073F947E02948B6
:10034000007810B1012841D120E000F075FE264967
:100350000860264800F093FB0521012000F092F987
:10036000234908800846028820491F480068FFF793
:100370000FFF184801F024F94FF47A7000F0E4F907
:1003800001F04FF90120174908701FE019491220A8
:1003900000F01AFF17480078402812D101211648B2
:1003A00000F024FF14480078052803D100200D49EF
:1003B00008700AE001F035F94FF47A7000F0C4F9E2
:1003C00003E04FF4FA7000F0BFF900BF00BFB6E7DA
:1003D000000059408C000020040000204C00002048
:1003E00001000020000000201C000020240000204C
:1003F000200000201900002078000020704700BF76
:10040000FEE700BFFEE700BFFEE700BFFEE7704764
:1004100070477047704700000CB5002001900090B5
:100420006C48006840F480306A49086000BF694841
:10043000006800F4003000900198401C0190009882
:1004400018B90198B0F5A06FF1D16248006800F4C6
:10045000003010B10120009001E0002000900098D1
:10046000012843D15C48006840F010005A490860F8
:100470000846006820F0030008600846006840F065
:100480000200086053484068524948600846406886
:1004900048600846406840F480604860084640680C
:1004A00020F47C1048600846406840F4E81048603A
:1004B0000846006840F08070086000BF454800684A
:1004C00000F000700028F9D04248406820F0030096
:1004D000404948600846406840F00200486000BF5C
:1004E0003C48406800F00C000828F9D10CBD10B55C
:1004F000FFF792FF10BD10B53648006840F00100CC
:100500003449086008464068344908403149486029
:1005100008460068324908402E49086008460068CD
:1005200020F4802008600846406820F4FE004860FF
:100530004FF41F008860FFF7DAFF4FF00060294991
:10054000086010BD10B5002100200022214B5B681F
:1005500003F00C0121B1042906D0082928D107E0B5
:10056000214B224C236027E01F4B204C236023E0CB
:10057000184B5B6803F47010164B5B6803F4803211
:10058000022303EB904022B9194B4343174C2360DD
:100590000DE0104B5B6803F4003323B1144B43436D
:1005A000124C236003E0104B4343104C236003E0E4
:1005B0000D4B0E4C236000BF00BF064B5B68C3F3BE
:1005C00003130C4CE15C094B1B68CB40074C2360C8
:1005D00010BD000000100240002002400000FFF8A3
:1005E000FFFFF6FE08ED00E000127A002C0000206C
:1005F00000093D003000002000B587B001214FF414
:10060000017002F059FD4FF4004002F0B9FC0220E5
:10061000ADF8180000208DF81B0003208DF81A009B
:1006200006A92C4801F002FF002001908DF8080077
:100630008DF809004FF46020039000200490012001
:100640008DF8140001A9244802F04FFE0121224830
:1006500002F077FE204802F096FE00BF1E4802F02E
:1006600097FE0028FAD11C4802F09CFE00BF1A48F1
:1006700002F09DFE0028FAD10121174802F0A1FEE8
:1006800007B000BD2DE9F04105460C4600260723C2
:1006900001222946104802F0C0FE002713E0012184
:1006A0000D4802F08EFE00BF02210B4802F0FAFF57
:1006B0000028F9D0084802F017FF0644052000F092
:1006C00043F8781CC7B2A742E9DBB6FBF4F080B26E
:1006D000BDE8F0810008014000240140014604E02B
:1006E000002000E0401C0228FCD30A00A1F1010117
:1006F000F6D1704710B50446A41E03E00120FFF7B1
:10070000EDFF641E002CF9D110BD00B50120FFF7EC
:10071000E5FF0120FFF7E2FF0120FFF7DFFF0120E7
:10072000FFF7DCFF00BD00B50120FFF7D7FF012078
:10073000FFF7D4FF0120FFF7D1FF0120FFF7CEFF25
:100740000120FFF7CBFF00BD10B5044603E04FF4D6
:100750007A70FFF7CFFF2000A4F10104F7D110BD9C
:1007600010B50121082002F0A7FC10BD08B5012139
:10077000092002F0A1FC0121FE4801F028FF102011
:100780008DF803000820ADF8000003208DF802006A
:100790006946F94801F04AFE0821F74801F0F3FEE6
:1007A00008BD08B510208DF803000820ADF8000042
:1007B00003208DF802006946EF4801F037FE08215A
:1007C000ED4801F0E2FE08BD08B504208DF80300F5
:1007D0000820ADF8000003208DF802006946E648C5
:1007E00001F024FE08BD10B51021E34801F0CBFE56
:1007F00010BD10B51021E04801F0C7FE10BD08B5CE
:10080000FFF7AEFF10208DF803001820ADF80000B0
:1008100003208DF802006946D74801F007FE102139
:10082000D54801F0B0FE0821D34801F0ACFE08BD68
:1008300010B5FFF79BFF0820FFF75CFFFFF7D3FF22
:100840000820FFF757FFFFF7ACFF0820FFF752FF24
:10085000FFF7CFFF0820FFF74DFF10BD2DE9F04156
:10086000044625468027002613E0FFF7C2FFFFF766
:100870004CFF07EA050010B1FFF778FF01E0FFF732
:1008800090FFFFF7B0FFFFF740FF6806050E701CF2
:10089000C6B2082EE9DBFFF7ACFF0820FFF72AFFFE
:1008A000FFF792FF0820FFF725FFBDE8F08170B544
:1008B0000024FFF79EFFFFF787FF0820FFF71AFFCE
:1008C000002513E0FFF78FFFFFF72DFF002608211B
:1008D000A94801F03EFE00B1012646EA4400C4B238
:1008E000FFF787FFFFF71FFF681CC5B2082DE9DB84
:1008F000FFF76AFF0820FFF7FDFE204670BD10B528
:10090000FFF74FFF0820FFF7F5FEFFF76CFF082009
:10091000FFF7F0FEFFF72AFF0820FFF7EBFE10BD00
:1009200010B50024FFF765FFFFF74EFF0820FFF723
:10093000E1FEFFF758FF0820FFF7DCFE07E0601C30
:1009400084B2FA2C03DDFFF7DAFF002010BD082186
:10095000894801F0FEFD0028F1D1FFF74AFF082089
:10096000FFF7C8FE0120F1E710B5FFF742FF0820AE
:10097000FFF7C0FEFFF715FF0820FFF7BBFEFFF7EC
:1009800032FF0820FFF7B6FEFFF733FF0820FFF71E
:10099000B1FEFFF719FF0820FFF7ACFE10BD10B540
:1009A000FFF727FF0820FFF7A5FEFFF7DFFE08206F
:1009B000FFF7A0FEFFF717FF0820FFF79BFEFFF7EA
:1009C00018FF0820FFF796FEFFF7EBFE0820FFF761
:1009D00091FE10BD10B5FFF72BFF7120FFF73EFF12
:1009E000FFF79EFFFFF763FF0446FFF7D8FFFFF70F
:1009F00086FF204610BD10B50024FFF7EBFF04462C
:100A000004F06800082801D1012010BD0020FCE797
:100A100010B5FFF70DFF7020FFF720FFFFF780FFF5
:100A2000AC20FFF71BFFFFF77BFF3320FFF716FF1C
:100A3000FFF776FF0020FFF711FFFFF771FFFFF7C9
:100A40005EFF10BD30B502460B46FF20002113E0CB
:100A5000555C684008240BE000F0800525B1312585
:100A600085EA4005E8B201E04506280E651EECB2B5
:100A7000002CF1DC4D1CE9B29942E9DB30BD70B5C8
:100A800086B00546002005900490039002900190E6
:100A9000009000240026FFF7BBFF5020FFF754FE14
:100AA00000BF09E040F2E450FFF724FE3046711C1D
:100AB0008EB2642800DB05E0FFF78CFF00F08000B9
:100AC0008028EFD000BFFFF7B3FE7120FFF7C6FE0E
:100AD000FFF726FFFFF7EBFE0590FFF745FFFFF757
:100AE000E6FE0490FFF740FFFFF7E1FE0390FFF7FB
:100AF0003BFFFFF7DCFE0290FFF736FFFFF7D7FE64
:100B00000190FFF731FFFFF7D2FE0090FFF747FF9C
:100B1000FFF7F5FE9DF81000204304029DF80C003D
:100B2000204304029DF80800044324092C6000249B
:100B30009DF80800204304029DF8040020430402AD
:100B40009DF800000443C4F313046C6006B070BD4C
:100B500070B58AB00546002009900890079006906D
:100B60000590049003900024002601900290FFF766
:100B70004FFF03E000023000000C01405020FFF75F
:100B8000E3FD00BF09E040F2E450FFF7B3FD30465B
:100B9000711C8EB2642800DB05E0FFF71BFF00F03C
:100BA00080008028EFD000BFFFF742FE7120FFF7E2
:100BB00055FEFFF7B5FEFFF77AFE09908DF80400A9
:100BC000FFF7D2FEFFF773FE08908DF80500FFF7E0
:100BD000CBFEFFF76CFE07908DF80600FFF7C4FE12
:100BE000FFF765FE06908DF80700FFF7BDFEFFF7E3
:100BF0005EFE05908DF80800FFF7B6FEFFF757FE82
:100C000004908DF80900FFF7AFFEFFF750FE039048
:100C1000FFF7C5FEFFF773FE062101A8FFF712FFDD
:100C20009DF80C1088421CD19DF82000204304023E
:100C30009DF81C00204304029DF818000443240979
:100C40002C6000249DF81800204304029DF8140035
:100C5000204304029DF810000443C4F313046C60A5
:100C600002E00020286068600AB070BD10B5FFF790
:100C7000C6FDFFF7DDFD7020FFF7F0FDFFF750FE2A
:100C8000A820FFF7EBFDFFF74BFE0020FFF7E6FD86
:100C9000FFF746FE0020FFF7E1FDFFF741FEFFF7FB
:100CA0002EFE0A20FFF750FDFFF7C2FD7020FFF770
:100CB000D5FDFFF735FEBE20FFF7D0FDFFF730FE74
:100CC0000820FFF7CBFDFFF72BFE0020FFF7C6FD46
:100CD000FFF726FEFFF713FE0A20FFF735FD10BDD4
:100CE0002DE9F0410446FFF7A3FD7020FFF7B6FDA4
:100CF000FFF716FE2046FFF7B1FDFFF711FE0020BB
:100D0000FFF7ACFDFFF70CFE0020FFF7A7FDFFF794
:100D100007FEFFF7F4FD0520FFF716FDFFF788FD3E
:100D20007120FFF79BFDFFF7FBFDFFF7C0FD0746B6
:100D3000FFF71AFEFFF7BBFD0546FFF715FEFFF7AD
:100D4000B6FD0646FFF72BFEFFF7D9FD0A20FFF799
:100D5000FBFCFFF76DFD7020FFF780FDFFF7E0FD66
:100D600044F0B000FFF77AFDFFF7DAFD2846FFF701
:100D700075FDFFF7D5FD3046FFF770FDFFF7D0FD9D
:100D8000FFF7BDFD00250026BDE8F08110B51B2052
:100D9000FFF7A6FF1C20FFF7A3FF1E20FFF7A0FF11
:100DA00010BD000008B5002000904FF40061C3485A
:100DB00001F0EBFB4FF48061C04801F0E6FB4FF41B
:100DC0004060ADF8000010208DF8030003208DF87E
:100DD00002006946B94801F029FB4FF40061B748A9
:100DE00001F0D1FB4FF48061B44801F0CCFB08BDA9
:100DF00008B5002000904FF48060ADF8000010208E
:100E00008DF8030003208DF802006946AB4801F01D
:100E10000DFB08BD08B5002000904FF48060ADF8D0
:100E2000000048208DF803006946A44801F0FEFA4E
:100E300008BD10B5FFF7DCFF4FF400619F4801F0DB
:100E4000A2FB4FF480619D4801F09DFB052000F05E
:100E5000CAFF4FF48061994801F097FB062000F02B
:100E6000C2FF4FF40061954801F08FFB10BD10B533
:100E7000FFF7BEFF4FF40061904801F086FB4FF48E
:100E800080618E4801F081FB4FF400618B4801F0D6
:100E90007AFB062000F0A7FF4FF48061874801F03D
:100EA00072FB062000F09FFF10BD10B500244FF428
:100EB0008061824801F067FB012000F094FFFFF79A
:100EC000A9FF4FF400617D4801F05DFB012000F0B7
:100ED0008AFF07E0601CC4B2FA2C03DDFFF7C7FFEE
:100EE000012010BD4FF48061744801F032FB0028EE
:100EF000F0D14FF40061714801F047FB0020F0E7AA
:100F000010B54FF400616D4801F03FFBFFF770FF33
:100F10004FF48061694801F038FB022000F063FF64
:100F20004FF40061654801F02EFB052000F05BFFE7
:100F30004FF40061614801F028FB10BD10B54FF47B
:100F400000615E4801F021FBFFF752FF4FF4806122
:100F50005A4801F018FB022000F045FF4FF40061F1
:100F6000564801F010FB052000F03DFF4FF40061F2
:100F7000524801F00AFB10BD70B50446FFF738FF78
:100F80004FF400614D4801F000FB002524E004F01F
:100F9000800028B14FF48061484801F0F4FA04E081
:100FA0004FF48061454801F0F0FA022000F01BFF89
:100FB0004FF40061414801F0E6FA022000F013FF0F
:100FC0006006040E4FF400613C4801F0DEFA022096
:100FD00000F009FF681CC5B2082DD8DB70BD70B5E4
:100FE00005460024FFF716FF00261BE04FF40061C2
:100FF000324801F0CAFA022000F0F5FE4FF4006119
:101000002E4801F0C0FA6006040E4FF480612B48B0
:1010100001F09FFA08B1601CC4B2012000F0E3FEA9
:10102000701CC6B2082EE1DB15B9FFF787FF01E09F
:10103000FFF766FF204670BD2DE9F0470024A1466A
:101040000120FFF799FFFFF7F4FE4620FFF794FF1A
:1010500000BFFFF72AFF0028FBD12320FFF78CFFFA
:1010600000BFFFF722FF0028FBD1FFF700FF1E2083
:1010700000F0DDFEFFF7DDFE4720FFF77DFF00BF3C
:10108000FFF713FF0028FBD10120FFF7A8FF04465C
:101090000020FFF7A4FF8146FFF7E9FE09EB0420DB
:1010A00002F015FE07464FF03332054B02F08AFC82
:1010B000054602F055FCBDE8F0870000000C014039
:1010C0003333F33F08B501210C2001F0F5FF602018
:1010D000ADF8000010208DF8030003208DF8020009
:1010E0006946344801F0A2F90820ADF8000010204C
:1010F0008DF8030003208DF8020069462D4801F0A9
:1011000095F91020ADF8000048208DF803006946DD
:10111000284801F08BF94021264801F034FA0821D3
:10112000244801F030FA08BD70B5044600250026B9
:101130002CE008211F4801F028FA012000F053FE9E
:1011400004F0800020B120211A4801F01CFA03E0CD
:101150002021184801F019FA6006040E012000F061
:1011600042FE0821134801F00EFA012000F03BFE78
:101170006806050E10210F4801F0EBF908B145F0A3
:101180000105012000F02FFE701CC6B2082ED0DB36
:101190000821084801F0F9F9284670BD10B5FF2074
:1011A000FFF7C2FF10BD10B504462046FFF7BCFF95
:1011B00010BD00000008014013B50446012201A93A
:1011C000204600F0A0FD1CBD70B504460D4601226E
:1011D0002946204600F0B3FD70BD70B504460D46AB
:1011E0002A462146002000F08EFD70BD70B50446F1
:1011F0000D462A462146002000F0A1FD70BD10B525
:10120000002000F0DFFC022000F011FE012000F0C1
:10121000D9FC0F2000F00BFE10BD10B500F02EFC25
:10122000FFF750FF012000F0CDFC002000F090FC03
:10123000002000F0A6FC10BD10B5044634B100201B
:1012400000F09FFC012000F083FC05E0012000F08D
:1012500098FC002000F07CFC10BD10B500F045FCAF
:1012600010BD10B500F051FC10BD10B500F05DFCD4
:101270000446204610BD10B5FE480068FE4988426D
:1012800004D3FC480068FD49884201D9002010BD04
:10129000F848007900F0F000F64908710846007936
:1012A000902801DD0020F2E7F248007900F00F01FC
:1012B00001BB00110A282ED2DFE800F02925211DEC
:1012C0001915110D0905EE48EE49086023E0EE48B6
:1012D000EC4908601FE0ED48EA4908601BE0EC4873
:1012E000E849086017E0EB48E649086013E0EA487F
:1012F000E44908600FE0E948E24908600BE0E8488B
:10130000E049086007E0E748DE49086003E0E64896
:10131000DC49086000BF00BFD648407900F0F0000B
:10132000D449487108464079C02803DC0846407912
:10133000602801DA0020AAE7CE4949790122C2EBF0
:101340002112022101FA02F002F066FF0446CD48A4
:101350000168204602F07EFED4490860C5488079C5
:1013600000F00E00C349887108468079082803DC24
:1013700008468079022801DA002088E7BD4890F904
:1013800007000F2801DD002081E7BA48C07A7F28D6
:1013900001DD00207BE7012079E710B581210120E4
:1013A000FFF70AFF10BD08B5B24890F907000F28F3
:1013B00001DD012008BDFFF7F0FFAE48C07940F025
:1013C000F0010920FFF7F8FE00200090694609208F
:1013D000FFF7FAFEA74890F9070040F0F0009DF8EB
:1013E0000010884201D00220E4E7A248007A0128D8
:1013F00004D187214D20FFF7DFFE03E084214D203B
:10140000FFF7DAFE0020D5E72DE9FE439948006892
:101410009A49884204D8974800689749884202D27E
:101420000120BDE8FE839349086802F067FC074687
:1014300000229F4B02F0C6FA054602F01BFC044650
:101440000020029001900090FFF7A7FFC4F307412E
:101450000620FFF7B1FEC4F307210720FFF7ACFE1B
:10146000E1B20820FFF7A8FE02A90620FFF7ACFEB4
:1014700001A90720FFF7A8FE69460820FFF7A4FE90
:101480009DF80800C4F30741884201D00220C8E754
:101490009DF80400C4F30721884201D00220C0E770
:1014A000E0B29DF80010884201D00220B9E7002088
:1014B000B7E71CB506200190FFF7DDFE08B9012053
:1014C0001CBDFFF7AAFEFFF79AFE00210120FFF7DF
:1014D00073FE80210120FFF76FFE81210120FFF7BD
:1014E0006BFE91212420FFF767FE01A92420FFF75E
:1014F0006BFE9DF80400912801D00220E0E7402116
:101500004120FFF759FE23210C20FFF755FEFFF77E
:101510007BFFFFF748FF06210A20FFF74DFE3B2126
:101520000B20FFF749FE5348C17A2220FFF744FE03
:10153000504800794F4A927910434E4A927A012AD4
:1015400001D0012200E0002240EA02011D20FFF745
:1015500033FE48484079474A527A012A01D1042291
:1015600000E0002240EA02011E20FFF725FE41486C
:101570004079602812D10020009069463120FFF7A1
:1015800023FE9DF8000000F0F800411D3120FFF718
:1015900013FE0C213720FFF70FFE00BF4FF08341F1
:1015A0004248006802F0E3FE01D2082000E000207B
:1015B00040F0040421462620FFF7FEFD00207FE7CF
:1015C00010B5044681210120FFF7F6FD00212020FF
:1015D000FFF7F2FD0A212120FFF7EEFD2548C17A31
:1015E0002220FFF7E9FD0120FFF726FE80210D20D4
:1015F000FFF7E2FD1F48C27A2146002000F083FB7E
:10160000FF211220FFF7D8FDF7211120FFF7D4FDAD
:1016100040210846FFF7D0FD83210120FFF7CCFDD4
:1016200010BD10B581210120FFF7C6FD002120204B
:10163000FFF7C2FD0A212120FFF7BEFD0D48C17A48
:101640002220FFF7B9FD0020FFF7F6FD00210D2055
:10165000FFF7B2FDFF211220FFF7AEFDBF211120E1
:10166000FFF7AAFD00214020FFF7A6FD85210120FC
:1016700020E000004C0000208047A1190016D6365B
:101680000000FA434400002000007A430000FA42C0
:1016900000007A42D7A326420000FA41D7A3A64110
:1016A00085EB79415C8F264185EBF94048000020AD
:1016B00080844E40FFF780FD10BD30B585B00546F3
:1016C000002469461920FFF77FFD9DF8000000F017
:1016D000800060B19DF80000C043401CC0F385004D
:1016E00000909DF800004042DD49488107E09DF8E8
:1016F0000000800800909DF80000D949488101A9A8
:101700001A20FFF761FDD648B0F90A00002809DA6F
:101710009DF80400A438D2494989401A00B2D04942
:10172000088109E09DF8040000010F2190FBF1F011
:10173000A43800B2CA490881CA48807A012808D171
:10174000C8490B311320FFF73FFD00210D20FFF7A3
:1017500033FDC448C17A2846FFF748FDFF21122017
:10176000FFF72AFD28788DF80800002405E002A87C
:10177000015DBDA001F0BAFF641C0A2CF7DB05B0C7
:1017800030BD08B569461B20FFF71EFD9DF800001F
:10179000A438B34988810846B0F90C0008BD10B5DB
:1017A00081210120FFF708FD80210120FFF704FDC2
:1017B00010BD10B581210120FFF7FEFCF021202093
:1017C000FFF7FAFCFF212120FFF7F6FCFA21112098
:1017D000FFF7F2FC80214020FFF7EEFC0020FFF72E
:1017E0002BFDFF211220FFF7E7FC10BD10B50020F4
:1017F000FFF722FD81210120FFF7DEFC8721012078
:10180000FFF7DAFC10BD10B5FFF7D3FF10BD10B520
:10181000044614B1012C0AD106E0FF211220FFF783
:10182000CBFCFFF7BCFF03E0FFF7E0FF00E000BFE9
:1018300000BF10BD10B581210120FFF7BDFCF021D4
:101840002020FFF7B9FCFF212120FFF7B5FC8548D8
:10185000C17A2220FFF7B0FCBF211120FFF7ACFCBA
:1018600000214020FFF7A8FC0020FFF7E5FC002145
:101870000D20FFF7A1FCFF211220FFF79DFC852121
:101880000120FFF799FC10BD70B505460C4681217B
:101890000120FFF791FC7348C17A2220FFF78CFCEE
:1018A0000120FFF7C9FC80210D20FFF785FC6D4862
:1018B000C27A2946002000F026FAFF211220FFF705
:1018C0007BFCF7211120FFF777FC40210846FFF74A
:1018D00073FC21122020FFF76FFCE1B22120FFF7FB
:1018E0006BFC83210120FFF767FC70BD70B5624C73
:1018F000492506E061782078FFF75EFCA41C681E8D
:10190000C5B2002DF6DC70BD38B54FF6FF74092165
:101910000120FFF751FC00BF69460120FFF754FC8E
:10192000641E9DF8000000F00700012801D0002C83
:10193000F2D138BD38B54FF6FF7408210120FFF70A
:101940003BFC00BF69460120FFF73EFC641E9DF88A
:10195000000000F0070008B1002CF3D138BD08B535
:10196000FFF75BFCFFF74BFC00F076F9FFF7E2FFB7
:10197000FFF7CAFFFFF7BAFF0020009055212F2084
:10198000FFF71AFC69462F20FFF71EFC9DF80000A8
:10199000552801D0022008BDD3212F20FFF70CFCD1
:1019A00069462F20FFF710FC9DF80000D32801D0D6
:1019B0000220F0E70020EEE710B510213F20FFF7EE
:1019C000FBFB10BD70B505460E46FFF79DFF0021DD
:1019D0004020FFF7F1FB0120FFF72EFCFFF7ECFFA3
:1019E00031460020FFF7E8FB002404E0295D0020D9
:1019F000FFF7E2FB641CB442F8D30B210120FFF790
:101A0000DBFB70BD10B5FFF77FFF00214020FFF723
:101A1000D3FBFFF7D1FF0020FFF70EFC0D210120C3
:101A2000FFF7CAFB10BDF8B506460C460020009033
:101A3000FFF76AFF69460020FFF7C6FB9DF800002C
:101A40002070002505E071190020FFF7BDFB681C20
:101A5000C5B22078A842F6DCFFF7AEFFF8BD000063
:101A6000A40400204C000020B6C1B3F6CAFDBEDDC0
:101A70003A25780D0A000000CE4400081FB5012168
:101A8000102001F019FB8020ADF80C0028208DF803
:101A90000F0003208DF80E0003A9B74800F0C6FC24
:101AA0000121084601F008FB0721022000F0D4FDC7
:101AB0008020019000208DF8080008208DF8090092
:101AC00001208DF80A0001A801F068FB17208DF8AD
:101AD000000002208DF801008DF8020001208DF831
:101AE0000300684600F0D9FB1FBD08B517208DF82C
:101AF000000002208DF801008DF8020001208DF811
:101B00000300684600F0C9FB08BD08B517208DF832
:101B1000000002208DF801008DF8020000208DF8F1
:101B20000300684600F0B9FB08BD10B5802192485B
:101B300000F00FFD0446204610BD10B580218E48F0
:101B400000F007FD012802D1802001F09EFB10BDAE
:101B500038B504460121482001F0AEFA2020ADF846
:101B6000000010208DF8030003208DF80200694664
:101B7000824800F05BFC22462021804800F007FDEF
:101B800038BD38B504460121482001F095FA2020DF
:101B9000ADF8000010208DF8030003208DF802003E
:101BA0006946774800F042FC22462021744800F044
:101BB000EEFC38BD10B5044622464021714800F0C5
:101BC000E6FC10BD38B504460121042001F074FA8A
:101BD0008020ADF8000010208DF8030003208DF860
:101BE00002006946674800F021FC224680216548D2
:101BF00000F0CDFC38BD08B50121042001F05CFAED
:101C00006020ADF8000018208DF8030003208DF847
:101C1000020069465B4800F009FC1020ADF80000A6
:101C200048208DF803006946564800F0FFFB01216B
:101C3000102001F041FA0820ADF8000010208DF8C6
:101C4000030003208DF8020069464D4800F0EEFBCA
:101C50004DA001F04BFD08BD00B585B0FFF7CBFFEF
:101C60000121880301F035FA0020ADF800004FF49F
:101C70008270ADF802000020ADF80400ADF8060057
:101C8000ADF808004FF40070ADF80A003820ADF848
:101C90000C000020ADF80E000720ADF810006946DA
:101CA0003E4800F037FD01213C4800F0D8FD3CA043
:101CB00001F01CFD05B000BD70B50546002405E02F
:101CC000601CC4B2C82C01DD002070BD0221334865
:101CD00000F049FE0028F3D02946304800F0F0FD1E
:101CE000002405E0601CC4B2C82C01DD0020ECE734
:101CF00001212A4800F037FE0028F3D0274800F0E1
:101D0000E1FDC0B2E1E72DE9F04105460E46174678
:101D100040211C4800F039FC45F08000FFF743FAF1
:101D2000002404E0305DFFF73EFA601CC4B2BC4200
:101D3000F8DB4021134800F026FCBDE8F0812DE9D6
:101D4000F04105460E46174640210E4800F01DFCA6
:101D500005F07F00FFF727FA002404E0FFF71EFAE2
:101D60003055601CC4B2BC42F8DB4021054800F08D
:101D70000AFCBDE8F081000000100140001801409D
:101D8000000C0140000801405350493220494FB334
:101D9000F5CABCBBAFB3C9B9A60D0A0000380040F4
:101DA0005350493220B3F5CABCBBAFB3C9B9A60D75
:101DB0000A00000010B56FF0040000F0B8FA2E48D9
:101DC00000682E49B0FBF1F02D49087008460078F4
:101DD00000EB4001C1EBC0104FF6FF7101EAC000FB
:101DE0002849088010BD0146254A12784A434FF021
:101DF000E0235A6100229A611A46126942F00102F8
:101E00001A6100BF4FF0E022106900F001021AB120
:101E100000F48032002AF5D04FF0E022126922F05F
:101E200001024FF0E0231A6100229A6170470146D7
:101E3000144A12884A434FF0E0235A6100229A6103
:101E40001A46126942F001021A6100BF4FF0E02207
:101E5000106900F001021AB100F48032002AF5D0B6
:101E60004FF0E022126922F001024FF0E0231A61E4
:101E700000229A61704700002C00002000127A00B6
:101E8000580000205A00002000BF704770B504467B
:101E90000D4600BF8021E24800F046FF0028F9D03F
:101EA000E1B2DF4800F0D2FE00BF4021DC4800F084
:101EB0003BFF0028F9D0204670BD10B586B004461F
:101EC0000121480401F005F90121042001F0F4F892
:101ED0000420ADF8040003208DF8060018208DF8CA
:101EE000070001A9CF4800F0A1FA0820ADF80400CE
:101EF00004208DF8070001A9CA4800F097FA2620AF
:101F00008DF8000000208DF801008DF802000120FE
:101F10008DF80300684600F0C0F902940020ADF887
:101F20000C00ADF80E00ADF81000ADF814000C2058
:101F3000ADF8120002A9BC4800F08FFD012240F26A
:101F40002551B94800F021FE0121B74800F011FEEB
:101F500006B010BD10B540F22551B34800F0FAFEAE
:101F6000F8B1B14800F076FEC4B22146AC4800F0AA
:101F70006DFEAE48B0F80004C0F30E0040F2FF3131
:101F800088420EDAA949B1F80014C1F30E00411CD1
:101F9000A64AB2F8002461F30E02A449A1F8002475
:101FA0000C5440F22441A04800F0D4FE01281BD17B
:101FB0009E48B0F8000420F4004000F500409B4922
:101FC000A1F80004984800F045FEC4B221469448A8
:101FD00000F03CFE96A1954801F0F4FB08B1012009
:101FE00000E000209549087010BD10B586B0044689
:101FF0000121880401F06DF80121082001F05CF84E
:102000004FF48060ADF8140003208DF816001820FE
:102010008DF8170005A98A4800F008FA4FF400600F
:10202000ADF8140004208DF8170005A9844800F0CD
:10203000FDF927208DF8000000208DF801008DF8B3
:10204000020001208DF80300684600F026F9019493
:102050000020ADF80800ADF80A00ADF80C00ADF8AE
:1020600010000C20ADF80E0001A9764800F0F5FC38
:10207000012240F22551734800F087FD012171488B
:1020800000F077FD06B010BD10B540F225516D4847
:1020900000F060FED8B16B4800F0DCFDC4B26348CC
:1020A000B0F80004C0F30E0040F2FF3188420EDAAF
:1020B0005E49B1F80014C1F30E00411C5B4AB2F84E
:1020C000002461F30E025949A1F800240C5440F297
:1020D00024415C4800F03EFE012817D15348B0F877
:1020E000000420F4004000F500405049A1F800042D
:1020F000544800F0AFFDC4B24DA14C4801F062FB62
:1021000008B1012000E000204C49087010BD10B556
:1021100086B00446012144F2040000F0CDFF4FF4E4
:102120000070ADF8140003208DF8160018208DF80B
:10213000170005A93B4800F079F94FF48060ADF82D
:10214000140004208DF8170005A9364800F06EF938
:1021500025208DF8000003208DF801008DF8020085
:1021600001208DF80300684600F097F801940020E4
:10217000ADF80800ADF80A00ADF80C00ADF810009D
:102180000C20ADF80E0001A9254800F066FC0122E4
:1021900040F22551224800F0F8FC0121204800F0CF
:1021A000E8FC06B010BD10B540F225511C4800F007
:1021B000D1FD10B31A4800F04DFDC4B2224800888A
:1021C00000F40040C8B92048008800F4804060B1A5
:1021D0000A2C03D000201C49088020E01A480088FF
:1021E00040F400401849088019E00D2C06D116482B
:1021F000008840F480401449088010E012480088AC
:10220000C0F30D0011490C540F480088401C0E49C2
:10221000088008460088C72801DD0020088010BD1E
:10222000003801400008014000440040A0000020A8
:10223000434C4F5345440D0A00000000400000206D
:10224000000C01400048004060000020B404002061
:102250000948804709480047FEE7FEE7FEE7FEE73A
:10226000FEE7FEE7FEE7FEE7FEE7FEE70448054976
:10227000054A064B70470000F7040008ED0000080F
:10228000E0050020E00B0020E0070020E007002030
:1022900031490143314A1160704770B50021002374
:1022A0000F22C47804B32D4C246804F4E064C4F510
:1022B000E064210AC1F10403CA40447804FA03F13E
:1022C0008478144021430901254C0678A1550478EF
:1022D00004F01F050124AC4005786D11AD0005F137
:1022E000E025C5F8004109E0047804F01F05012449
:1022F000AC401C4D0678761145F8264070BD1A4A50
:102300000A400243154B1B1F1A60704739B1134A2C
:10231000121D12680243114B1B1D1A6006E00F4A82
:10232000121D126882430D4B1B1D1A607047042852
:1023300008D14FF0E021096941F004014FF0E0229B
:10234000116107E04FF0E021096921F004014FF02D
:10235000E0221161704700000000FA050CED00E07A
:1023600000E400E080E100E080FFFF1F10B50446BC
:10237000CC48844208D10121042000F0B7FE00219E
:10238000042000F0B3FE46E0C748844208D1012192
:10239000082000F0ABFE0021082000F0A7FE3AE084
:1023A000C248844208D10121102000F09FFE002184
:1023B000102000F09BFE2EE0BD48844208D1012190
:1023C000202000F093FE0021202000F08FFE22E06C
:1023D000B848844208D10121402000F087FE002146
:1023E000402000F083FE16E0B348844208D101216A
:1023F000802000F07BFE0021802000F077FE0AE0C4
:10240000AE48844207D10121801500F06FFE002103
:10241000A01500F06BFE10BD10B50121084600F0BC
:1024200065FE0021012000F061FE10BD2DE9F041A4
:10243000024600250026002000230024002791F8F2
:1024400003C00CF00F0591F803C00CF0100CBCF1A8
:10245000000F03D091F802C04CEA050591F800C0C6
:10246000BCF1000F31D0146800202BE04FF0010CBC
:102470000CFA00F3B1F800C00CEA03069E4220D12A
:1024800083004FF00F0C0CFA03F7BC4305FA03FC72
:102490004CEA040491F803C0BCF1280F06D14FF0B8
:1024A000010C0CFA00FCC2F814C00AE091F803C059
:1024B000BCF1480F05D14FF0010C0CFA00FCC2F83A
:1024C00010C0401C0828D1D31460B1F800C0BCF182
:1024D000FF0F34DD546800202EE000F1080C4FF0AF
:1024E000010808FA0CF3B1F800C00CEA03069E429A
:1024F00021D183004FF00F0C0CFA03F7BC4305FA0F
:1025000003FC4CEA040491F803C0BCF1280F05D188
:1025100000F1080C08FA0CF8C2F8148091F803C016
:10252000BCF1480F07D100F1080C4FF0010808FA80
:102530000CF8C2F81080401C0828CED35460BDE8C7
:10254000F0814FF6FF710180022181700421C1707A
:1025500070470246002093680B400BB1012000E059
:10256000002070470146886880B27047024600200C
:10257000D3680B400BB1012000E0002070470146FA
:10258000C86880B2704701617047416170470AB105
:10259000016100E041617047C16070474FF48032D3
:1025A0000A43826181618261826982697047024661
:1025B0000020434B18684FF68073184040EA021021
:1025C00008433F4B186070473E49C8617047F0B5FB
:1025D0000A46002300240021002500F00046B6F141
:1025E000004F02D1364EF16901E0354E7168C0F3FB
:1025F000034583B200F44016B6F5401F08D121F020
:1026000070612F4E766826F070662D4F7E6012E066
:1026100000F48016B6F5801F06D1032606FA05F4ED
:10262000A14341F0706106E0460D360103FA06F65B
:10263000B14341F0706122B1460D360103FA06F64E
:10264000314300F00046B6F1004F02D11C4EF1615B
:1026500001E01B4E7160F0BD30B500228B071C0FEE
:102660000F2303FA04F2164B08338C1053F824306E
:102670009343134C08348D1044F8253023468C10B6
:1026800053F824308C07240F00FA04F423430C4C35
:1026900008348D1044F8253030BD0A49DC3108601B
:1026A0007047000000080140000C0140001001408C
:1026B0000014014000180140001C014000200140AE
:1026C000000001400000204210B50446BE4884428C
:1026D00008D10121801400F009FD0021A01400F0B0
:1026E00005FD16E0B948844208D10121001400F02C
:1026F0000AFD0021201400F006FD0AE0B4488442DF
:1027000007D10121C01300F0FEFC0021E01300F00E
:10271000FAFC10BD10B50022028802F441520B8869
:102720004C8823438C882343CC8823430C89234340
:102730004C8923438C892343CC8923431A43028049
:10274000838B4FF2FF74234083830B8A038210BD77
:102750002DE9F04F85B005460C464FF000090227E1
:102760004FF000084FF0010B0026B246A88B4FF245
:1027700040010840A88302202884B5F81C90A06876
:10278000022801D100BF38E0A08810B94FF0010B3A
:1027900001E04FF0020B8D48854200D100E000BF00
:1027A000684600F01CFCDDF800A0E088B0F5007F72
:1027B0000AD14FEA1A2000EB80004000A168B0FB6C
:1027C000F1F0401D86B20BE04FEA4B10BAFBF0F07F
:1027D00000EB80004000A168B0FBF1F0401D86B224
:1027E0000A20B6FBF0F606F00108A6EB0800C0F3DD
:1027F0004F074FF6FF7000EA0828022F01DBFF2F7A
:1028000002DD02274FF00008E08840EA0800384364
:102810002884A088A1890843618808432188084347
:1028200040F4006040EA0909A5F81C9005B0BDE835
:10283000F08F0021018041808180C1800181418130
:102840008181C1810721018270470021018041807F
:102850008180C1800221816000218181704721B186
:10286000028842F04002028004E002884FF6BF7303
:102870001A400280704721B1828B42F480628283C9
:1028800004E0828B4FF6FF331A408283704730B5E5
:10289000002400230C110125A540ABB21AB1858894
:1028A0001D43858002E085889D43858030BD1AB137
:1028B00083880B43838002E083888B438380704747
:1028C000818170470146888970474FF6FF629142C7
:1028D00004D0028842F48072028004E002884FF63D
:1028E000FF631A400280704721B1828842F00402DF
:1028F000828004E082884FF6FB731A408280704722
:1029000002884FF2FF731A40028002880A43028055
:102910007047018841F480510180704721B10288DD
:1029200042F40052028004E002884DF6FF731A4020
:102930000280704702460020012901D0108B00E080
:10294000908A70470146088A7047B1F5804F04D1DC
:10295000028842F48042028004E002884BF6FF7352
:102960001A40028070470246002013890B400BB1C9
:10297000012000E000207047CA4302817047F0B593
:102980000246002000240023002501F00F07012645
:10299000BE40B4B20B1101269E40B3B2968806EA3F
:1029A00003051689264016B10DB1012000E0002074
:1029B000F0BD10B5002201F00F040123A3409AB22C
:1029C000D343038110BD00000030014000380040B7
:1029D000003C004010B50446FB48844209D1012167
:1029E000880300F083FB00214FF4804000F07EFB61
:1029F00032E0F648844209D10121480400F083FB0B
:102A000000214FF4003000F07EFB25E0F0488442C6
:102A100009D10121880400F076FB00214FF48020C9
:102A200000F071FB18E0EB48844209D10121C80491
:102A300000F069FB00214FF4002000F064FB0BE084
:102A4000E548844208D10121080500F05CFB002123
:102A50004FF4801000F057FB10BD2DE9F04786B011
:102A600005460E460024A24600BFA1460027B089B5
:102A700000B100BF2F462C8A4CF6FF700440F0884E
:102A800004432C82AC894EF6F3100440B08831899F
:102A90000843718908430443AC81AC8A4FF6FF4078
:102AA0000440B0890443AC8201A800F098FAC648FB
:102AB000874202D1DDF810A001E0DDF80CA0A88962
:102AC00000F4004040B10AEBCA0000EB0A10316884
:102AD0004900B0FBF1F807E00AEBCA0000EB0A106E
:102AE00031688900B0FBF1F86420B8FBF0F0040114
:102AF0002009642101FB1089A88900F4004040B13D
:102B0000322000EBC900B0FBF1F000F007000443F5
:102B100008E0322000EB09106421B0FBF1F000F076
:102B20000F0004432C8106B0BDE8F0874FF4165126
:102B3000016000218180C18001810C21418100213F
:102B40008181704710B502460020108A4FF2FF03C2
:102B500018400B884C8823438C882343CC8823431C
:102B60001843108210BD0021018041808180C18006
:102B7000704721B1828942F40052828104E0828947
:102B80004DF6FF731A4082817047F0B5034600246A
:102B900000260025002040F66A17B94200D100BF88
:102BA0001846C1F3421401F01F06012707FA06F583
:102BB000012C01D10C3004E0022C01D1103000E0D6
:102BC00014301AB107682F43076002E00768AF436B
:102BD0000760F0BD1AB1838A0B43838202E0838AC7
:102BE0008B4383827047028A4FF6F0731A40028249
:102BF000028A0A430282704782894FF2FF731A40A9
:102C0000828182890A438281704721B1828942F0A0
:102C10000202828104E082894FF6FD731A408281AC
:102C20007047028A4FF6DF731A400282028A0A4313
:102C30000282704721B1028A42F48042028204E09B
:102C4000028A4BF6FF731A4002827047C1F30802F2
:102C50008280704701468888C0F3080070478189E8
:102C600041F0010181817047028BD2B20283028B55
:102C700042EA012202837047028B02F47F42028300
:102C8000028B0A430283704721B1828A42F02002FC
:102C9000828204E0828A4FF6DF731A408282704794
:102CA00021B1828A42F01002828204E0828A4FF6C9
:102CB000EF731A408282704721B1828A42F0080283
:102CC000828204E0828A4FF6F7731A40828270474C
:102CD00021B1828942F40042828103E08289C2F3F9
:102CE0000E028281704721B1828A42F400628282A0
:102CF00004E0828A4FF2FF731A4082827047828A10
:102D00004FF6FB731A408282828A0A43828270479E
:102D100021B1828A42F00202828204E0828A4FF666
:102D2000FD731A408282704702460020B1F5007F91
:102D300000D100BF13880B400BB1012000E0002040
:102D4000704701F40072B2F5007F00D100BFCA43A2
:102D50000280704770B50246002400230025002041
:102D600040F66A16B14200D100BFC1F3421501F02E
:102D70001F03012606FA03F3012D02D19689334081
:102D800006E0022D02D1168A334001E0968A3340D4
:102D90000C12012606FA04F41688344013B10CB163
:102DA000012000E0002070BD10B50022002340F695
:102DB0006A14A14200D100BF0A1201249440A3B2B8
:102DC000DC43048010BD0000003801400044004096
:102DD00000480040004C004000500040DF480068C0
:102DE00040F00100DD49086008464068DC490840C1
:102DF000DA49486008460068DA490840D74908605F
:102E00000846006820F4802008600846406820F4E6
:102E1000FE0048604FF41F0088607047CF49096882
:102E200021F48031CD4A11601146096821F48021D6
:102E30001160B0F5803F03D0B0F5802F0ED106E0D1
:102E4000C649096841F48031C44A116007E0C349AA
:102E5000096841F4A021C14A116000E000BF00BF31
:102E6000704710B501460022002300204A11012AB4
:102E700002D1BA4C236806E0022A02D1B74C236A79
:102E800001E0B64C636A01F01F02012494401C402B
:102E90000CB1012000E0002010BD38B500200090EA
:102EA0000024002500BF3120FFF7DBFF0546009816
:102EB000401C00900098B0F5A06F01D0002DF2D01A
:102EC0003120FFF7CEFF08B1012400E000242046A6
:102ED00038BD01460020A14A106820F0F80040EA01
:102EE000C10010607047A04908607047024600208A
:102EF0009A4B586820F47C1042EA01031843974B20
:102F00005860704798490866704701460020934A08
:102F1000506820F003000843506070478F484068B5
:102F200000F00C007047014600208C4A506820F0E9
:102F3000F00008435060704701460020874A5068FF
:102F400020F4E06008435060704701460020834A47
:102F5000506820F4605040EAC1005060704729B1C9
:102F60007E4A527A02437D4B5A7204E07B4A527A7F
:102F700082437A4B5A7270477B49D8310860704758
:102F800001460020754A506820F4404008435060D4
:102F900070470021714A20321170704A82F8201067
:102FA000012802D004280AD104E001216B4A203212
:102FB000117005E00521694A2032117000E000BF60
:102FC00000BF70476949086070476449096A014356
:102FD000624A11627047654944390860704730B5EC
:102FE00000210022002400235C4D6D6805F00C01D7
:102FF00021B1042905D0082923D105E05C4D0560E5
:1030000022E05B4D05601FE0544D6D6805F47012C1
:10301000524D6D6805F48034022505EB92421CB9CF
:10302000544D554305600BE04C4D6D6805F400357B
:103030001DB1504D5543056002E04D4D55430560AF
:1030400002E04B4D056000BF00BF444D6D6805F0C8
:10305000F0010909484D6B5C0568DD4045603F4D56
:103060006D6805F4E061090A434D6B5C4568DD401D
:1030700085603A4D6D6805F46051C90A3E4D6B5C40
:103080004568DD40C560354D6D6805F44041890BEC
:103090003A4D6B5CC568B5FBF3F5056130BD29B1F0
:1030A0002E4A526902432D4B5A6104E02B4A526961
:1030B00082432A4B5A61704729B1284A92690243D8
:1030C000264B9A6104E0254A92698243234B9A6118
:1030D000704729B1214AD2690243204BDA6104E0EA
:1030E0001E4AD26982431D4BDA61704729B11B4ADF
:1030F000D2680243194BDA6004E0184AD26882436E
:10310000164BDA60704729B1144A12690243134B17
:103110001A6104E0114A12698243104B1A61704728
:1031200012494039086070470F49C86470470B491D
:10313000C87170470948406A40F08070074948628A
:10314000704701460020054A92680A400AB10120F2
:1031500000E000207047014988727047001002406B
:103160000000FFF8FFFFF6FE0000424280044242EA
:1031700000127A0000093D00620000207200002069
:10318000002044490860091D0860091D0860091DE8
:10319000086041483F4914310860704700213D49AB
:1031A0008279002A3AD00A46126803689A430B468D
:1031B0001A600A1D126803689A430B1D1A6002798F
:1031C00011440A6803681A430A60324A08321268D6
:1031D00003689A432F4B08331A601A1D126803685C
:1031E0009A432C4B0C331A604279102A0ED11A1FC5
:1031F000126803681A43274B08331A601A1D1268B5
:1032000003681A43234B0C331A600DE021494279BD
:1032100011440A6803681A430A6005E00279114400
:103220000A6803689A430A607047002101600171CF
:103230000C214171002181717047164910310968D4
:103240000143144A10321160704701460020114AB0
:10325000143212680A400AB1012000E000207047D1
:103260000C49143108607047014600200022094BC8
:103270001B6803EA0102074B14331B680B4013B1B0
:103280000AB1012000E000207047024914310860B3
:103290007047000000040140FFFF0F0010B5044616
:1032A000FA48844208D101214015FFF71FFF002191
:1032B0006015FFF71BFF17E0F548844208D1012194
:1032C0000015FFF713FF00212015FFF70FFF0BE09C
:1032D000F048844208D10121C803FFF707FF00210D
:1032E0004FF40040FFF702FF10BD30B5024600204A
:1032F00000235068E84C20400D790C6844EA05240E
:10330000204350609068E54C2040D1E902542C43A2
:103310004D7944EA450420439060D06A20F470005F
:103320000C7C641EE4B2234340EA0350D06230BDFB
:1033300000210160017141718160C160012101744E
:10334000704721B1826842F00102826003E0826826
:1033500022F001028260704721B1826842F48072DB
:10336000826003E0826822F480728260704710B548
:103370000023CBB21AB144681C43446002E04468A5
:103380009C43446010BD816841F008018160704732
:10339000014600208A6802F008020AB1012000E01C
:1033A00000207047816841F0040181607047014648
:1033B00000208A6802F004020AB1012000E0002027
:1033C000704721B1826842F4A002826003E0826803
:1033D00022F4A00282607047014600208A6802F44D
:1033E00080020AB1012000E00020704710B50A46B3
:1033F00000210023416821F46041531E41EA43311A
:10340000416010BD21B1426842F40062426003E0B5
:10341000426822F4006242607047F0B504460D46EF
:1034200000200021092D11DDE068A5F10A0606EB58
:103430004607072606FA07F18843A5F10A0606EBB8
:10344000460603FA06F10843E0600CE0206905EB4C
:103450004507072606FA07F1884305EB450603FAF8
:1034600006F108432061072A0FDA606B561E06EB4F
:1034700086071F2606FA07F18843561E06EB8606C6
:1034800005FA06F10843606322E00D2A0FDA206B8B
:10349000D61F06EB86071F2606FA07F18843D61FBC
:1034A00006EB860605FA06F10843206310E0E06AA1
:1034B000A2F10D0606EB86071F2606FA07F18843E0
:1034C000A2F10D0606EB860605FA06F10843E06256
:1034D000F0BD21B1826842F48012826003E082680C
:1034E00022F48012826070470146C86C80B2704737
:1034F00066484C300068704721B1426842F48062EF
:10350000426003E0426822F480624260704721B169
:10351000426842F48052426003E0426822F48052E2
:10352000426070470A460021816821F4E04111435E
:103530008160704721B1826842F40042826003E0FA
:10354000826822F400428260704721B1826842F4AE
:103550000212826003E0826822F4021282607047E5
:10356000014600208A6802F400120AB1012000E03E
:1035700000207047F0B504461546002000220026C2
:10358000092911DDE068A1F10A0707EB470C0727BD
:1035900007FA0CF29043A1F10A0707EB470703FA79
:1035A00007F21043E0600CE0206901EB410C0727B3
:1035B00007FA0CF2904301EB410703FA07F21043BC
:1035C0002061A06BC0F30156EF1C06F1010CA7EBC4
:1035D0000C0707EB870C1F2707FA0CF29043EF1C30
:1035E00006F1010CA7EB0C0707EB870701FA07F2BE
:1035F0001043A063F0BD10B50A4600210023816B83
:1036000021F44011531E41EA0351816310BD08B5F6
:10361000002300930090009B0B440093009B1A60D2
:1036200008BD08B5024600200090009201F1280074
:10363000009B184400900098006880B208BD0A46BC
:1036400000214168164B19401143416070474162A7
:10365000826270470A460021416821F01F01114330
:103660004160704740B109490831096841F40001DF
:10367000064A0832116007E004490831096821F45C
:103680000001024A08321160704700000024014026
:1036900000280140003C0140FFFEF0FFFDF7F1FF74
:1036A000FFFD3FFF0246002013680B400BB10120D5
:1036B00000E000207047CA430260704770B50246C0
:1036C0000020002300240B125568CEB205EA060440
:1036D00015681D4015B10CB1012000E0002070BD3F
:1036E00000220A12D3430360704770470FB40449A5
:1036F00010B503AA029800F0EDF810BC5DF814FBB9
:103700005C0000202DE9F0410E46044600202062B6
:103710002046E168884730B3252805D0D4E9012147
:103720009047206A401CF2E7E1682046002788475E
:10373000050018D0A5F14100192802D820354FF412
:1037400000673246294620462760FCF709FD40B154
:10375000012804D0F61D26F007060836D8E7361DE6
:10376000D6E72846DAE7206ABDE8F08170B504465E
:103770000D4621461068AFF300802188090502D567
:103780000F4A7A4402E00E4A7A440E32002104F1D4
:10379000240305E000F00F060009965D5E54491C05
:1037A0000028F7D120780023000704D5702D02D01F
:1037B00009B1022311322046BDE8704000F018B86C
:1037C000DA0D000030B505460B462A4613F8014BCA
:1037D00012F8010B08B1A042F8D01CB1002802D0A9
:1037E0006D1CF1E7284630BD704770477047704741
:1037F0002DE9F0470D4699469246044600F124080B
:103800000168880604D5E06921F01001216000E01C
:103810000120A84201DD471B00E00027A1697A19B9
:1038200002EB0900081AA0612078C00602D42046E5
:10383000AFF30080002608E0D4E901211AF8060061
:103840009047206A401C761C20624E45F4DB2078AD
:10385000C0060AD52046AFF3008006E0D4E9012176
:1038600030209047206A401C2062381EA7F10107D3
:10387000F4DC07E0D4E9012118F805009047206A3C
:10388000401C2062281EA5F10105F3DC2046AFF3A1
:1038900000802078000602D50220BDE8F0870120D4
:1038A000FBE7000001694A1C02610878704700B517
:1038B0008FB0CDE901310021059105497944CDE969
:1038C000031011466846FFF71DFF0FB000BD000052
:1038D000E5FFFFFF074B70B50D467B44FFF7E7FFA1
:1038E0000446284600F008F810B14FF0FF3070BDD4
:1038F000204670BDAFE5FFFF007B00F08000704701
:10390000754600F029F8AE4605006946534620F09A
:103910000700854618B020B5FEF7A8FCBDE820409A
:103920004FF000064FF000074FF000084FF0000B7B
:1039300021F00701AC46ACE8C009ACE8C009ACE82E
:10394000C009ACE8C0098D4670470446AFF300805B
:103950002046FCF717FC0000004870477C0500205B
:1039600021F00042A2F16052B2F5801F01F0004345
:1039700028BFD2F17F6C0BD95FEA001C43EAC20278
:1039800042EB507018BF704728BF20F0010070470D
:10399000B2F5801FBCBF184670474FEA410C1CF5BA
:1039A000001F02D2084600F0DDBC70B500F064FADA
:1039B00000000089FFF7F6BF4FF00040A0F580003F
:1039C000704700002DE9C04130B4DFF8A0C23CEAE6
:1039D000111418BF3CEA131400F0EC8081EA0305CF
:1039E0001CEA111444EAD57418BF1CEA131500F040
:1039F000C780A4EB05044FF0004545EAC12145EA24
:103A0000C32341EA505143EA525304F17F7499426F
:103A100004F500344FEAC0204FEAC22208BF9042AA
:103A200000F09C804FEA13650FF24016765D4FEA76
:103A3000134506FB05F7C7F1807706FB07F74FEA4A
:103A4000D737A7FB03687642C8F58038A7FB06CEB8
:103A500038BFA8F1010807FB08E64FF0000EA6FBEF
:103A6000028CE6FB03CEDCF1000CCEF1004E38BF39
:103A7000AEF1010EA6FB0C584FF000074FF0000509
:103A8000E6FB0E87A1FB08C6A0FB07CE16EB0E06D1
:103A900045F10005E1FB076515F1E04E7EBFA4F599
:103AA00080345FEA46066D4116F1800745F1000556
:103AB0004FEA17274FEA066647EA0567A6F1DE4692
:103AC000B6F1805F4FEA15251FD9384624F0010C66
:103AD00005EBC471BCF1FE6F01EB0C1102D8F0BC18
:103AE000BDE8008124425CBF01F5801E9EEAC47FD0
:103AF00002D4F0BCBDE80081244238D4F0BCA1F16E
:103B0000C041BDE8004100F005BA4FEAD22242EAC6
:103B100043524FEAD323A7FB02864FEAD02040EA64
:103B2000415007FB03661EEA0E0F4FEAD12105FB49
:103B3000026658BFA6EB0056B6EB00564FEA520E8F
:103B40004EEAC37E18EB0E0E56EB530EBDD518EBA6
:103B500002085E417F1C55F10005B6E74FF4801561
:103B60004FF000074FF000064FF00008ADE7F0BC43
:103B70004FF0000001F1C04101F00041BDE80081BB
:103B800011EA0C1F0CEA131500D00CE013EA0C1F0D
:103B900000F025804FF00000F0BC81EA030101F045
:103BA0000041BDE80081F0BCBDE8004181EA0301AD
:103BB00000F0B0B9F0BCBDE8004170B500F05CF9B0
:103BC000097EFC3E00F007B881EA03014FF00000D7
:103BD00001F00041704781EA030100F09BB9F0BC9D
:103BE000BDE800414FF0000021497047FFFDFBF99F
:103BF000F7F5F4F2F0EEEDEBE9E8E6E4E3E1E0DE20
:103C0000DDDBDAD8D7D5D4D3D1D0CFCDCCCBCAC891
:103C1000C7C6C5C4C2C1C0BFBEBDBCBBBAB9B8B7B8
:103C2000B6B5B4B3B2B1B0AFAEADACABAAA9A8A8AB
:103C3000A7A6A5A4A3A3A2A1A09F9F9E9D9C9C9B79
:103C40009A99999897979695959493939291919024
:103C50008F8F8E8E8D8C8C8B8B8A898988888787B5
:103C60008685858484838382828181800000FF072A
:103C70000000F87F4FEA1153A3F58063D3F11E03D0
:103C8000A8BFD3F1200C08DB4FF0004242EAC1226A
:103C900052EA505232FA03F0704709420BD4102B0B
:103CA000C4BF0020704703F5787CBCF1FF3F05D00E
:103CB0004FF0FF3070474FF00000704770B500F0D4
:103CC000DBF800BF4992248000207047F0E710F035
:103CD000004248BF4042B0FA80F310FA03F10AD024
:103CE000C3F11D0303F580634FEA415002EB035219
:103CF00002EBD12170474FF000007047B0FA80F31B
:103D000010FA03F10AD0C3F11D0303F580634FEAF3
:103D100041504FEA035202EBD12170474FF00000AF
:103D200070470000DFF848C170B51CEA111E1EBFC5
:103D30001CEA13159EEA0C0F95EA0C0F00F06F8039
:103D400081EA030423EA4C134EEAD47E21EA4C11A3
:103D500041F4801143F48013AE44A1FB024CA0FB5C
:103D60000365AEF17F7E361955EB0C05A1FB034CC4
:103D70004CF10003A0FB021C16EB0C06654153F14D
:103D80000003094218BF46F0010613F4007F0BD16F
:103D90004FEA03314FEA0530340341EA155140EA56
:103DA00016506FF003020AE04FEAC3214FEAC52024
:103DB000F40241EA555140EA56506FF0020202EB1C
:103DC0002E4201EB025585EACE710AD05FEA440C1F
:103DD00018BF24F0004450F1000041F1000120EA36
:103DE000D47040F2FE7C624500D270BDA84214BF80
:103DF0004FF080444FF04044002E08BF0024BEF135
:103E0000806FA8BFA1F1C041BDE8704080F2828000
:103E10004FF0000001F1C04101F0004170479EEAFF
:103E20000C0F0CEA131518BF95EA0C0F06D04FF0D3
:103E3000000081EA030E0EF0004170BD00F01CF896
:103E40008900013E00F007B800F009B84FEA430CC2
:103E50005FEA5C5C08D081EA030100F05BB84FEADE
:103E6000410C5FEA5C5CF6D14FF0000001497047FD
:103E70000000FF070000F87F0EF1020E2EF0030E87
:103E80005EF8046B364205D4012A43EB030515F5B1
:103E9000001F12D8012841EB010C1CF5001F0CD8A3
:103EA0000ED14FEAD17C15F5001F0CEB4C0C0CF138
:103EB000020C08BF4CEBD37C04E04FF0080C01E08F
:103EC0004FEAD37C0CEB4C0526FA05F606F0070604
:103ED000B6F1040C06D20EEB860CBDE870404CF037
:103EE000010C6047DFE80CF0090B02024FF00041C3
:103EF0004FF00000A1F5002170BD194610460128C1
:103F000051EB010418BFD4F5001484BF002001F068
:103F1000004170BD0808A0F500114FEA310170475B
:103F200043004FEAD30C4FEA3C0C43401FBF40070D
:103F30000CF1605113F0FE4F70471CF0006F03D17D
:103F400000200CF0004170470CF0004343EA507031
:103F500010B540EACC0000F0BFF900BF00000092AD
:103F60004FEA0001FFF7D6BF4FF000414FF00000CD
:103F7000A1F500217047000090EA010F48BF81F0D1
:103F8000004100F13682421A3CBF801A89184FEA7C
:103F9000D0524FF07F4C1CEA410FA2EBD15318BF17
:103FA0009CEA026F00F03B804FF0004C4CEA00208E
:103FB0004CEA012121FA03FC10EB0C0C1ED202F199
:103FC000FF325FEA1C2040EBC25038BF70471CF044
:103FD0007F0F4FEA400C18BFBCF17F4F38BF7047CE
:103FE000C3F12003994008BF20F00100BCF17F4FCE
:103FF00038BF7047A0F1C04000F0B4B94FEA3C00B0
:10400000000A40EBC25028BF1CF0FF0F4FEA400CE3
:10401000E6D018BFBCF17F4F38BF7047EAE79CEA93
:10402000026F05D010EA5C0F08BF00F00040704737
:1040300010B500F051F900BF64FBBE3E401058BF00
:10404000C0F14040491058BFC1F140418142EFF3F7
:10405000008070474FF47F0C1CEAD0121EBF1CEA90
:10406000D11392EA0C0F93EA0C0F00F0858090EACE
:10407000010F48BF42F4807240F4000C41F400008C
:104080002CF07F4120F07F4000B58142A2EB03027B
:104090000FF2081CACEB504EC0F100009EF800E09F
:1040A0004FEA4E0E00FB0EFC38BF49004FEA2C1CB5
:1040B00002F5FA020CFB0EF34FEACE1E4FEA112C6A
:1040C0004FEAC1210EEB635E42EB22420EFB0CFC79
:1040D0004FEA1C5300FB03114FEA112C4FEA013148
:1040E0000EFB0CFC4FEADC4C00FB0C11C14228BF5C
:1040F00009184CEB03335DF804EB10EB410143EB83
:10410000C250B2F57C0F38BF704729D512F0F00FBE
:104110001CBF00F1C04000F0004070470081828366
:104120008485868788898B8C8D8E8F9192939596C6
:1041300097999A9C9D9FA0A2A3A5A7A8AAACAEB050
:10414000B2B3B5B7B9BCBEC0C2C5C7C9CCCED1D455
:10415000D7D9DCDFE2E6E9ECF0F3F7FAFE00000085
:104160004FEA400C0CF1807CBCF17E4F28BF7047B9
:10417000B0F1C04000F0F6B890EA010F0CEAD1139C
:1041800048BF42F48072624538BF634507D213F4DA
:104190007F0F16D080EA010000F00040704710B594
:1041A00000F09AF8097EFC3E00F005B880EA0100B4
:1041B00000F00040704780EA010000F0004000F08D
:1041C000D1B812F47F0F04BF0248704780EA0100A3
:1041D00000F0C8B80000C07FC10DD1F19E0206DB1F
:1041E0004FEA002343F0004323FA02F070470042F5
:1041F00007D54FEA4001B1F1FE4F02D24FF0000067
:10420000704710B500F068F849922480002070478C
:104210006FEA20007047000010F0004148BF4042A4
:10422000B0FA80F310FA03F2C3F19D030BD051EA08
:10423000C35101EB1220530638BF704700F1010053
:1042400008BF20F001007047B0FA80F310FA03F2C3
:10425000C3F19D030AD0D90501EB1220530638BFE4
:10426000704700F1010008BF20F001007047000016
:1042700050EA010C00F113801CF5000F58BFBCF58B
:10428000000F01D48842704707D710F5000F58BFC0
:1042900011F5000F15D488427047894270471CF50C
:1042A000000F04D5BCF5000FF7D5814270474FF0E1
:1042B000807C1CEB400F38BF1CEB410F01D28142C8
:1042C000704710B500F008F8922449004FF00050F4
:1042D0004FF08051FFF7B2BE0EF1020E2EF0030E2A
:1042E0005EF8044B244204D44FEA4102B2F17F4FFE
:1042F00011D84FEA4003B3F17F4F0CD80ED14FEAEB
:10430000D07CB2F17F4F0CEB4C0C0CF1020C08BFCF
:104310004CEBD17C04E04FF0080C01E04FEAD17C7B
:104320000CEB4C0324FA03F404F00704B4F1040C7E
:1043300006D20EEB840CBDE810404CF0010C604737
:10434000DFE80CF0070802024FF00040A0F5800003
:1043500010BD0846420018BFD2F1807288BF00F03D
:10436000004010BDFF2141EAD050C005704751EA1E
:10437000000C00F113801CF5000F58BFBCF5000FB6
:1043800001D48142704707D711F5000F58BF10F5CF
:10439000000F15D481427047894270471CF5000F09
:1043A00004D5BCF5000FF7D5884270474FF0807CEC
:1043B0001CEB410F38BF1CEB400F01D28842704705
:1043C00080EA010081EA000180EA0100FFF779BF7D
:1043D00080F0004090EA010F7FF5D5AD81F00041FB
:1043E00000F007B890EA010F48BF81F000413FF5A7
:1043F000CAAD421A04D882F00042A0EB0200114478
:104400004FEAD0524FF07F4C1CEA410FA2EBD15340
:1044100018BF9CEA026F4AD04FF0004C4CEA0020D3
:104420004CEA012121FA03FCB0EB0C0C0FD412F082
:10443000FE0F36D05FEA4C001DD5001240EBC25093
:1044400038BF70471CF03F0F18BF70470BE0A2F158
:1044500001025FEA1C2040EBC25038BF70471CF0DD
:104460007F0F18BF7047C3F12003994014BF401E4F
:1044700020F00100704780084FEA122308BF704700
:10448000B0FA80FCA2EB0C02CCF1280C60FA0CF024
:1044900093EA122F04BF00EBC25070474FEAC3707B
:1044A0007047130A5FEADC1008BF7047F6E79CEA22
:1044B000026F04D010EA5C0F08BF0020704710B5EF
:1044C000FFF70AFF40DFF63E81F000407047000032
:1044D0000109020D030504010537067507C0080030
:1044E000098F0A190B3B0C200D080E020F0A10FF52
:1044F00011001203130B1428150C16121A001B00BE
:104500001C001D001E001F4020002100220023006F
:10451000240525002604273328D329912AD32B915B
:104520002C002D002E002F0030903140322033001F
:104530003400358F36003700380039F53A203B8299
:104540003C003D023E803F4040004100442D4B096D
:104550004D875B005D006119620C634B64CC70D0C9
:1045600030313233343536373839414243444546A9
:1045700040305800303132333435363738396162A3
:104580006364656640307800A8450008000000209C
:10459000780000002801000820460008780000206C
:1045A000680B00004401000800000000A077171C01
:1045B00040FF7A1D80FB651E00A1BC33C0CA89364E
:1045C00000000000000000000000000000000000EB
:1045D0000000000000A24A040000000000000000EB
:1045E0000102030406070809000000000000FA4366
:1045F0006F12833F80A1031C9080020F01010140D4
:1046000000000000000000000000000000000102A7
:104610000304010203040607080902040608000057
:04000005080000ED02
:00000001FF
